:4000000000080020110000006B0100006B01000010B500F0E7F900F069FA00F0AFF8000010B572B6EE220E4B0E4C1A600E4BEB3A1A600E4B21321A6011231820236000F009
:400040000FF900230A4A0B4913600B4A116004210A4A11600A4A3C311160236010BDC046000302403000104000030440080304400003014040FF00800000014028000340F8
:4000800000010140000000000000000000000000000000000000000000000000000000000000000000000000000000000000000000000000000000000000000000000000FE
:4000C0000000000000000000000000000000000000000000000000000000000000000000000000000000000000000000000000000000000000000000000000000000000000
:4001000010B5064C2378002B07D1054B002B02D0044800E000BF0123237010BDF80000200000000068130000084B10B5002B03D00749084800E000BF07480368002B00D1B0
:4001400010BD064B002BFBD09847F9E700000000FC00002068130000700000200000000010B562B600F0DEFBFEE710B501F0BAF803680C2B00D1FEE7FEE70000F8B5002583
:400180000F49104B01394A1C14D000221F685C689E68A018B24203D0B858A0500432F8E70200DE68141AA64201D020C2FAE710330139E8E701F09CF8FFF7D2FFFEE7C0468C
:4001C000010000009C13000001210F4A70B5136814008B43136000230C4D0D4E0D489A002900032B00D8B15801338150192BF6D1FFF716FF084B1A68002A00D11A60012259
:4002000023681343236070BD000010406B0100000000000000000020680000208021034A090613680B4313607047C04630000340024A13685B005B0813607047300003403E
:4002400010B5040000F0AAFB032304490A689A43234013430B6000F0A5FB10BD28000340F8B50400182804D0102302009A43202A35D1072600F092FB194D1A4A2B681A49E1
:40028000B3432B60194B0700E3181B78DBB21360174A1368B3431360164B0A68E31818787F239A43034013430B60322000F06CFB182C11D923002A681C3B9B08B2433340B0
:4002C00013432B60322000F05FFB183C2B68A4083440B3431C432C60380000F063FBF8BD080F03400C0F0340180F0340CDF1FF0F100F0340B4F1FF0F10B5040000F04EFB59
:40030000A3000C24044923400A68A24313430B6000F048FB10BDC04628000340024B8000C31818681960704740000020F8B5032605003540B5400F0004000635AE40AF4089
:4003400000F02CFBA408054BA400E4182368B3431F43276000F026FBF8BDC04600E400E01F2318401E3B8340014A13607047C04600E100E01F2318401E3B8340014A13606A
:400380007047C04680E100E01F2318401E3B8340014A13607047C04680E200E001BE7047034A044913689BB20B4313607047C0460CED00E00400FA0570B5802504002D029D
:4003C000064BAC4205D9586800F0DEFA044BE418F6E79868604300F0D7FA70BD740000200080FFFF014A024B1A6070476588EDAC38000340004700234118002A05D0013AC6
:40040000881800781B18DBB2F7E7180070473F23020070B59A4390B0130014006A464034D51A1E78EE540133A342FAD13F230340D45C8C4205D08009D15480B2110000F042
:4004400079FB10B070BD0000013810B50B2831D88901494200F032FF06090B0D0F111513171A1C21FF239B0113E0154B16E0154B0AE0154B12E0154B0BE0154B09E0154B37
:4004800002E0154B00E0154BC91814E0144B05E0144BC9180878C0B211E0134BC9180A7848788C780002230418430300C8781343000603E000210B7848780002184310BD65
:4004C000C13F0000C53F0000C93F0000D03F0000D13F0000D63F0000D23F0000D43F0000D83F0000DC3F0000E03F00000C4B10B51A68102313400B4A00D113601368802B64
:400500000DD10024022021001460FFF79DFFA04205D021000220FFF797FFFFF76BFF10BD5400034068000020F8B5010004000320FFF78AFF210006000420FFF785FF210064
:4005400007000620FFF780FF0025012828D021000320FFF779FF0136B601F7192E0001308001B84209D203785A1ED2B2FD2A00D80126ED18EDB20130F3E721000120FFF7AA
:4005800063FF6D42EBB20625834209D1002E07D0AC40044B6042C0180121FFF738FF00252800F8BDD13F0000F0B5C34CA54400F023FA62B6002701970297962105AD18AC61
:4005C000FF232A004900200000F032FA0028F4D12988062900D885E022780423012A4FD16688F21D8A427FD8962149008A427BD8A2199279172A43D1F3189BB2002B08D05F
:40060000AEAAAE49D21852181278013B801880B2F3E7A3195A7940421B79120280B21A43082382422CD161E0342B00D0C6E0019B012B57D1032E55D14022002163A800F09E
:4006400086FE4027572163ABD819F21E04ABF619C918B6B200F072FE432E00D0FFE05522562104AB9B1804AA521810781B78000218430700FF2800D8F7E0012301930933D0
:40068000002418A801214370230AC370002304AA06320170211D1480847089B2002909D0AEAD864E6D18AD192D7801395B199BB289B2F3E7AEA9824D09195B424D199BB2DD
:4006C0002B70804D1B0A4D192B707F4B0734C91817230B70A1B27F3300F0DEF96DE7019B012B45D00423CBE70323C9E763782579180031380A282ED9744A1468002C26D096
:40070000019A012A25D108AD04AA13725681002119AE0C222800079600F019FEAE60290006A8A0472623AC88FF339C4202D9AB68B34207D0AA68002A01D1002C04D12B68A7
:40074000DBB29EE70E239BE70E23140099E7052397E7052394E700F0BBFDC2FF1600CFFF67FF3700CFFF3C004E0067FF5F007500002EB7D13000FFF7D7FE434243412371DC
:400780003300019C7DE7019B012BABD1012EA9D1002DA7D14E4B1B681B689A0BD2B29B09DBB2002A01D080235B0023711B0A6371FF23A3710023E371042462E7019B012B0E
:4007C00090D1022E8ED93DE7019B012B8AD10027F3E6019B012B85D12C33F419FF339C4282DC63ABD819320019A900F0A7FD0023A7B21C0045E7002E00D073E708AB190053
:40080000344A370011CA11C119AA03CB03C2012308240193330034E7019B012B00D061E7032E00D05EE75522562104AB9B1804AA521812781B7812021A430392FF2A52D9C9
:400840000A231DE70020FFF76FFE002802D18022214B1A6000F0E8F8FFF7A2FD42E701230027019302333C000BE7194B1B681A6893099BB2920601D001339BB22D02781975
:4008800085B29D4213D3029B002B0AD11900402208A800F05CFD08A9FF2000F04BF90123029363A9280000F045F9002816D00123002701930933D6E744FDFFFFA7FDFFFF3F
:4008C000ACFDFFFFADFDFFFFAEFDFFFF14010020880000206C130000680000200123070001930300BFE7039B2902C918890140220020FFF780FD0600002D0ED1039BFF2BB1
:400900000BD129000520FFF79FFD2900361A0620FFF79AFDF6B2361AF6B27642267100230124AEE670B50020FFF7FEFD431E98410624134D40422B6804401A68C021C03A54
:400940000020FFF758FD6B681B78181AC0B2834203D12B681B68002B02D10020FFF71EFD084B19681A00402901D0002C03D000231360FFF719FE80221A60FFF711FD70BD0D
:4009800088000020680000200230800804D0C0460138FDD1C046C046C0467047EFF3108072B6704780F310887047C0460D4B1B685B0615D50C4B1B68DB0609D50B4B1A68F3
:4009C000002A0DD00A490A6000220A490A6006E0084B074A18681168884201D012681A607047C0464C0F06406400064018010020CC010020B001002010B5094C4021201D8B
:400A000000F07EF820000021443000F05BF8054800F0E4F90023236000F0BCF910BDC04618010020AD09000010B500F0C1F910BDF7B506000D0001920120002E24D0002937
:400A400022D00A2410275C43002C1CD00F4803783B4213D00E4A019913689BB20B800021017011602A1C9D4200D91A1C094992B20431300000F062FC002005E00120FFF755
:400A80009BFC013CE0E71020FEBDC046B5010020C40100201801002070B501230C0000280CD000290AD0064D11802B0044330A000100180000F042FC00232C60180070BD8F
:400AC0001801002070B504000D0000280ED00520FFF750FC064B074A1C60074B05201D6000231360054A1360FFF73AFC70BDC046BC010020B0010020CC010020C0010020D5
:400B000070B504000D0000280CD00520FFF732FC0022054B05201C60044B1D60044B1A60FFF71EFC70BDC046C8010020B8010020C4010020F0B500279DB0089703900997B5
:400B4000FF2800D9F2E0B94200D1EFE040220CA800F0F4FB0222390001970AAB9000C058002802D00918074301920132122AF5D1002903D1002F00D0DBE000E0002702973D
:400B80003F227149714C0A9171485A60714A23600260C046236806911B0F049007920F2B04D022680023120F0A2A01D02368DBB20893089D002D00D0C2E0FFF7EFFE664EC1
:400BC00066493268664B0A601B680590DB0FDB074B60644B1B6809959B00099818338B600D0000281ED1302B06D12D3B1A4203D112091A40012A13D00220FFF77DFBAB68AC
:400C0000302B02D03020FFF72BFBFFF707FB0020FFF716FB302233689343203A1343336000230893089B002B18D14F4A03990A920A9A09040A430AA90A92049821604B49B2
:400C4000424A0160C0462168090F0F2903D01168090F0A2901D01368DBB20893089D002D3BD1002F39D0290040220CA800F06FFB019B029A0AAF9B00DA51069B049A0A935B
:400C80003F2307997B602760304B1160C0462268120F0F2A03D01A68120F0A2A01D01D68EDB20895089B002B17D1314A03990A920A9A09040A4304982E490A922760234AB4
:400CC0000160C0462168090F0F2903D01168090F0A2901D01368DBB20893099B002B21D11E4CA068302808D1226803331A4206D112091340012B02D10DE0FFF7B1FA032034
:400D000023681840FFF79CFA236833606368002B01D1FFF78DFA00230993099B002B01D0099B08930598FFF73DFE09E00423089306E0019A012792009858995002901FE71E
:400D400008981DB0F0BDC046B6D70000080010400400104004000080280003409C01002030000340080F0340B6D8000005000080B6D90000060000808021054A10B5136849
:400D800009060B4313600520FFF7EAFA10BDC0460000064010B5054C2378002B03D100F041F801232370FFF7E7FF10BDA801002010B50520FFF7DEFA00F096F8054A05209F
:400DC00013685B005B0813600022034B1A60FFF7DBFA10BD00000640880F0640014B58607047C046A801002080200A4B40001A6802420AD0084A1268520406D41A68074975
:400E0000114019601A6802431A600222044B1A607047C0460000064060000640FFFEFFFF6C00064010B500241A4B1B4A1C601B4B1B491A601B4B1C4A052013601B4A1460B4
:400E40001B4A11601B4A13601B4B1C60FFF792FA03210520FFF76AFA18490520FFF75EFA4C22174BFF321C60164B1A60164B3C3A1C60164BFF3A1C60154B1C60154B1A7062
:400E8000154B1C70154B1C60154B1C60154B1C7010BDC0460000064097080040600006403000FE00070100800003064004030640100306400002064004020640650F000057
:400EC000880E0640480F0640080F0640C80F0640880F0640D0010020B5010020B0010020C4010020B40100200023044A1360044A13601022034B1A707047C04668000640B6
:400F00006C000640D00100200E4A10B513680E495B005B08136000230B600C490C480B6004680C49214001600B490B600B490B6010210B4B19708021136809060B4313604F
:400F400010BDC04600000640680006406C00064060000640FF5CFFFF880F0640C80F0640D0010020B24BF7B51B68002B00D09847B04B1B68DB0702D50022AF4B1A602020FB
:400F8000AE4B1A78024219D1AD4A11680222FF32114213D01978AB4AC90706D511781E38814311701178073004E0117881431170902110780143117000221A701A789206E2
:400FC00000D533E11A78D20600D42DE102229C480168114234D09C499C4D0A609C490D320C68096822409B4C0904C90F26788A189449B24204D204260A7832430A7004E01F
:4010000027782E68D21BB21A2A602D68924A15600022924D2A6080252270914C6D0222682A43226025688F4A2A40226002240A78A2430A700A78013C22430A7010221A7018
:4010400008220168114235D07F490A60864A1168890417D58549864F0F25864C24682C420CD06E460C683D682C19834D2D68F571F57925700C6801340C60EDE714687F4905
:40108000214011607E4A6F4915681400AA0603D540250A782A430A7000257A4A15607A4A226020240A78A2430A700A78103C22430A701C70026852063ED50121734A1160D0
:4010C000734A60491068102210420BD063480260614A10685D4A106002200A7802430A7012221DE06B4A614812680068121A0420072A0ED95C48082A05D1A0240268240230
:401100002243026007E080240268A4012243026008205C4A106020200A7802430A70112208211A705C4A484B1A605C4A13680B43136001225A4B1A6008215A4B1A680A426F
:4011400025D0544B494A1B681068083B1B1A01208B4201D900200B00454C474D002B0AD011682668013B71182E68F6B20E70116801311160F2E7002807D080203A49000217
:401180000A6802430A603F4A136008221FE01B685B071ED5384B35491A683E4B08681B6898420CD201203E4BD2B2186030480B680068C3181A700B6801330B6006E0FFF70E
:4011C00013FE40211F4A13780B43137004222C4B1A60354B1B68DB0628D50F21FF25334B1B481C68194A03680B40082B18D0304B17681B682F4E9F4208D21368E3181B7815
:40120000DBB23360136801331360ECE73560114E33780A2BE7D833780133DBB23370E2E71022254B1A6001E0FFF76EFEF7BDC046AC0100208C0E0640880E0640D00100209B
:401240004C0F0640B5010020400F0640C001002008020640B4010020B0010020880F064004020640FFFFFEFF60000640C4010020C80100200803064040030640FF5FFFFFBD
:40128000C00F0640C80F0640ED0F0000800E064064000640B8010020FF0F0000480F06406C000640CC0F06408C0F0640BC010020CC01002040020640800F064002B47146B6
:4012C00049084900095C49008E4402BC7047C04603B47146490840004900095E49008E4403BC7047014B18687047C046F00000200E4B70B500251E000D4CE41AA410A542CD
:4013000004D0AB00F35898470135F8E700F034F8084B00251E00084CE41AA410A54204D0AB00F35898470135F8E770BD8413000084130000841300008C130000002310B519
:401340009A4203D0CC5CC4540133F9E710BD03008218934202D019700133FAE7704700004014000028000000000000009A11710A003C010143000000F8B5C046F8BC08BCB6
:401380009E46704729010000C9010000F8B5C046F8BC08BC9E46704701010000B01300007000002088000000E000000000000000000000000100000000007017E02E000085
:4013C0000C000000001BB70060130000641300000000000000000000000000000000000000000000000000000000000000000000741300000000000000000000000000009E
:4014000000000000000000000000000000000000000000000000000000000000000000000000000000000000000000000000000090000020000000000000000000000000FC
:401440000008002051140000451B0000451B000010B5034B83F3088801F026FD00F07AFB0008002070B572B6EE22204B42251A60542301241E4A1F4E13601F4A20201360BC
:4014800003221E4B1D601E4B1D601E4B1C601E4B1C601E4B1A601E4B2232FF321A601123336001F01BFCFE221A4B12021A601A491A4B200019601A490A608021194A4900C9
:4014C0001A60194A1160194A1A600422184B1A60184B3C321A60184B12191A60174B1D600023336000F012FB70BDC0460003024000000440300010401800044000010440FC
:4015000018010440000204401802044000030440080304400003014040FF0080000001400403014041FF00800803014042FF0080280003400801014004010140000101407E
:4015400010B5064C2378002B07D1054B002B02D0044800E000BF0123237010BD8001002000000000B0300000084B10B5002B03D00749084800E000BF07480368002B00D16E
:4015800010BD064B002BFBD09847F9E70000000084010020B0300000700000200000000010B501F099FC01F09FFC01F08FFC044B80B21B68C01801F07FFC01F09DFC10BD51
:4015C000740000201C491D4A0B7810B55B00985A1B4B9C1CE077DC1C000AE07748781C1D4000805AE0775C1D000AE07788789C1D4000805AE077DC1D000AE0771C00C87804
:4016000008344000805AE0771C00000A283420701C00087949794000805A49008A5A2934190020701C002B31000A2A340A702C33120A20701A7010BD0C310000EC0000203A
:40164000EF01002010B50C220249034801F026FD10BDC046A00100200402002010B50C220249034801F01AFD10BDC046C2010020F8010020F8B5070005240025380000F079
:4016800035FC00F013FB002802D001F0E1FBF8E7084B7E00F35A013C0130E4B2ED1801F0C1FB002CEAD12800052101F03FFC014BF052F8BDA0010020F0B500242D4E2E4D5D
:4016C00085B0E3B20093002302AAA3540098FFF7D1FF3388AB421FD9338801939D423BD202AB1B5D02AA0133DBB21355072B33D8224F0098E7193B7801333B70FFF7BAFF0D
:4017000033889D42E8D9019A521B92B2ED1AAA4222DA3B78013B1EE0338801939D421BD902AB1B5D02AA0133DBB21355072B13D8124F0098E7193B78013B3B70FFF79AFFCB
:4017400033889D42E8D2019AAA1A92B25D1BAA4202DA3B7801333B70052C08D0009B042B01D1074D00E0044D01340236A9E705B0F0BDC046A001002046050000A60000203F
:40178000B80B00000022F0B5074D084C511910190F8806880232F31B9B10FB189BB203800B800A2AF2D1F0BDE4010020A0010020F7B51B4B1A78012A0CD01A48037993421C
:4017C0002DD00021184B0271198059809980D980198124E0154B164C1B78FA2701930023A44619001048BF00019C01250C412C4004D0C5182C8801342C8000E0C452C41898
:401800000026A55FBD4205DD66460A4DED5AF55200252580013102330529E5D1CDE7F7BD3D0200207400002030020020D5010020B0010020A0010020F7B501F035FBA54808
:4018400001F0C2F901F050FBA34D286801F034FB01F052FB01F022FB62B60D2301279F4C6370083BA370913323722770E771FFF7A9FE40219A4E22000800377000F0DEFF44
:4018800000F038FF00F0F0FBFFF716FF00F05EFC002000F04FFC37000023924A9248C15AD15202330A2BFAD1002000F0F3FE23002D331870012000F0EDFE23002E331870DF
:4018C000022000F0E7FE23002F331870032000F0E1FE230030331870042000F0DBFE230031331870052000F0D5FE23003233187000230093E379022B00D001233B707B4B4C
:401900001E783B7801939E4228D0022B12D1042000F0ECFC002000F0FFFC012000F0FCFC019800F0F9FC032000F0F6FC052000F001FC10E0022E0ED1042000F0EDFC002021
:4019400000F0D4FC012000F0D1FC300000F0CEFC032000F0CBFC3B78644A13703B78012B29D1C8239B002B6000F022FB00F09EF9061E02D001F06CFAF8E7FFF703FF00F08F
:4019800051FC5B4B1E705B4B1E70300000F05CFC002808D00122B24056490B78134301220B70534B1A700136052EEED1514B1B78A371FFF7FDFE3B78022B34D1227A312A6E
:4019C00004D830332372FA23DB0007E0FA2A02D82823534302E0FA232372474B2B6000F0E7FA00F063F9002802D001F031FAF8E700F018FC052000F027FC0600042000F03C
:401A000023FC3C4B0643F0B21870394B002808D001223A7001221A708023A3717F3BE37101E01870A07161794BB2002B14DA009B022B04D80133DBB20093032B0ED12F4BE1
:401A400018892F4B1B89834208D92E4B1A8982181A817F230B4063710023009301F05EFA294E3070FFF7AEFDFFF7ECFDFFF7F6FD307801F057FA1E4BFF201B78012B00D06F
:401A8000002001F085F86379172B01D101F0BEF9E378AC2B04D12379392B01D101F0A6F801F03CFA307000F001FB00F0B5FE830609D400F04BFE01F0D9F9307801F032FA1B
:401AC00000F048FE02E0307801F02CFA00F006FB10E7C046A115000074000020EF0100203D020020E4010020A00100209C010020E20100203C02002010270000CE0000205F
:401B0000C2010020B0010020EE0100200B4A10B51368002803D0802109060B4301E05B005B081360064B202419680A00A243002801D022000A431A6010BDC0460020024026
:401B40002800034010B501F07DFA03680C2B00D1FEE7FEE7F8B500250F49104B01394A1C14D000221F685C689E68A018B24203D0B858A0500432F8E70200DE68141AA64222
:401B800001D020C2FAE710330139E8E701F060FAFFF752FEFEE7C046010000004431000001210F4A70B5136814008B43136000230C4D0D4E0D489A002900032B00D8B158E5
:401BC00001338150192BF6D1FFF74CFC084B1A68002A00D11A60012223681343236070BD00001040451B00004014000000000020680000200F2010B51249134B0A68134C6F
:401C00001A70237803401A002378834313430B600F4A104B08381A600F4A104B1A60104A104B11680B40C021C9020B43136001F0D9F80D49072001F09DF80321072001F07D
:401C4000A1F810BD00FF08403E02002062F1FF0F00020001080008400008A0010400084000000240FFFFF0FF4523000010B500F0D5FF00F0FDFF0021080001F005F800216A
:401C8000080000F0D7FFFF2000F0E4FF402000F0B7FF044A0449136807200B43136001F08BF810BD0400084000100880024B1878012318407047C0469E01002070B5104EE3
:401CC000355CB31D1C5C01F029F9AB00F3180F26A100C9B28E40DD682A68B243160004228A40D969032363430724DBB29C4032430E68A6430E602A6001F014F970BDC046B2
:401D0000B43000000D4B70B51C5C62B2002A02DBFFF7D4FF10E019007F2280001818056B2C3114400C19EDB26519AC4204D02078FFF7C4FF0134F8E770BDC046B4300000EB
:401D4000184BF7B59A1D175C1C5CB900C9B28C46154AA400105C1A19D6680F21326803250192624691407D43019AEDB28A43326001930026012800D0063601F0CFF80721A6
:401D8000A940AE40019B1C19E26913688B431E43166001F0C7F80122BA40A16C0B6893430B60F7BDB4300000400200200D4B70B51C5C62B2002A02DBFFF7C2FF10E01900B8
:401DC0007F2280001818056B2C3114400C19EDB26519AC4204D02078FFF7B2FF0134F8E770BDC046B430000010B5002420000134FFF7DCFF062CF9D110BD0000F7B505007A
:401E0000324C334B270058331B5C66199B0000931B591E37019300F001FF00F029FF307E0021013880B200F02FFF785D0021013880B200F0FFFEFF2000F00CFF402000F05B
:401E4000DFFE072000F0CEFF80222249367E0B6893437A5D10041207121A0098005970430E00824201D3402200E0C02213433360072000F0A1FF072000F0B4FF1648174BCF
:401E800002681340621D5219D17F2A340B431A00635D1B04134303603468114B07201C40104B1C4300F088FF2800FFF72BFF01F035F805003460002001F026F80A4B019A03
:401EC00028001A6001F02EF8F7BDC0467C000020B4300000040008400800084000FF80FFFF1FDFFF200020000C0008400022054B10B51A70C2B29A7381221A70FFF77EFF63
:401F000010BDC0469E0100200E4B10B519680E4B42000233D152FFF749FF072000F062FF0A4A0B4B116807200B40A02109020B431360084A084B11680B40136000F03CFF9E
:401F400010BDC0460C0008409E01002004000840FF1FDFFF0800084000FF80FFC0220449D2000B6840021040184308607047C04604000840072310B504000120CA08194054
:401F80008840A35C1840431E984110BD70B50400064D30350134E4B2062C05D021002800FFF7E8FF0028F5D0200070BD7C000020002310B50A4C2370FF33A373A07BC0B2A6
:401FC000FFF7E4FFA073A37B052B07D80122237813432370A07BC0B2FFF710FF10BDC0469E01002010B50724CB080C400121A140C018C9B20378002A02D01943017001E073
:402000008B43037010BD00000C4A70B5135C5CB2002C10DA7F241C40002380001018006B074D80B22C32984207D9D618365D0133A955DBB2F7E7024B195470BDB4300000C8
:402040004002002010B50024200000210134FFF7DBFF062CF8D1FFF7CDFD0020FFF77EFFFFF7C2FE10BD000010B5084CE37B002B03D1FFF7E7FF0123E373FFF7F7FD8021A7
:40208000034AC90313680B43136010BD9E01002004000840034B1B68002B02DA0122024B1A70704704000840AF01002010B5FFF7F1FF072000F096FE064A074B11680B4092
:4020C000136013685B005B08136000F0A7FD00F0CFFD10BD04000840FFEFF7FF10B5FF2000F08EFDFF2000F0B5FD034B1B78002B01D0FFF7BBFD10BDAF01002010B5094B13
:40210000094C4200195C145B084BD452002418180473180012301452054A1E33525C5A5410BDC0460C310000A0010020B0010020C800002010B50400FFF7D8FEFFF7B6FD5C
:402140000028FBD12000FFF7D9FF10BD10B5002420000134FFF7EEFF062CF9D110BD0000F8B504002A4B2B4A1E5C2B487600831DF35A2A499C4663009A5A595A07008A42A9
:4021800006D30020264B01251855531A9BB215E0050012358B1A755B9BB29D420DD2204D1E302B5D025D9A4204D82000FFF7A6FF002300E001332B5523E000259C450ED2F2
:4021C00038001230805B984202D8002D19D001E0002D04D0114A64001232A35216E0080207000E48521A0619307B0743D0190B4F6200010AD1530021094A307311559C45D7
:40220000E3D30022054B64001233E252F8BDC0460C310000A0010020C8000020B00100204602002010B5002421000648FFF7A2FE002802D02000FFF793FF0134062CF3D104
:4022400010BDC046AC000020F0B5254C254B27001E5C254A7300D318998C1B8E85B002932537935D05000191010038000393FFF781FE22006B001232002810D0D25A02996C
:40228000019B5B1A9A4222DA002229003800FFF7A9FE6A462300127B1E339A5517E0D15A029A019B9446220063441E3299420BDB935D013BDBB29355002B08D10122290076
:4022C0003800FFF78FFE02E06B461B7B9355200029002530FFF74EFE431E984105B0F0BDB00100200C310000C8000020084B70B51C5C06331D5C6519EDB221000134012268
:402300000448E4B2FFF76EFEA542F6D870BDC04612310000AC000020084B70B51C5C06331D5C6519EDB22100013400220448E4B2FFF758FEA542F6D870BDC04612310000D2
:40234000AC00002070B50126072000F04BFD164B164D1E602878C0B2FFF7D6FD144C23785BB2002B03DA2378B343237018E02878C0B2FFF70BFE28702B78052B04D82878A5
:40238000C0B2FFF73BFD0BE02378B343237023785B0605D5074B1A78074B1E70074B1A70072000F009FD70BD14000840AC0100209E0100203F020020D6010020AC000020A2
:4023C0000F2230B58500AA40094B8900CC58236893431A000423AB401343064A8D5803214843043181402A688A432A60236030BDC0300000D03000000F2270B58600B24083
:402400000D4B8900CD5803242B68444393430722A2402B60094BCD582B6893431A000623A3401343012282402B60054BC9580B6893430B6070BDC046C0300000D0300000D3
:40244000FC300000F0B50400808885B0013880B2002100F0EFFBE0880021013880B200F013FC434A434B1168FF260B40C021C9020B43414F13603B68E278B3431A433F4B16
:402480000292A1781A68019303924AB2002A08DB6078FFF795FF002608233100384D9C462CE07F2319402378364A9B00364D9B584D191E40AE19AE42EDD02B78334A0135AF
:4024C000D15C334AD05CFFF77BFFF4E7002B04D0013B60462A680242F8D0029A01983A602C4A0260E0682C4A10601068000CFCD1002B0ED0284B1B68F6180131237A99425F
:4025000009D2019B254A1A60FD235B003B60BA3BDFE71E00F1E7A1784BB2002B03DB6078FFF76AFF14E07F2319402378154A9B00154D9F584D19FFB2EF19AF4208D02B78B6
:40254000124A0135D15C124AD05CFFF755FFF4E7019B039A07201A600122114B1A6000F04BFC217A300000F0E1FC80B205B0F0BD00000240FFFFF0FF0800084004000840EE
:4025800010000840E4300000E0300000B4300000BA3000000038E8810C0008400030C88114000840002370B5040008268025C370E37820002B43E370FFF744FF638998427A
:4025C00002D2E378AB43E370013E6D08002EEFD1034BC018B82383428041404270BDC046F6FDFFFF0F23F7B52449040024480A6800789A43034013430B60072000F0E6FB1E
:40260000204D0600072000F0EDFB2B682A6801931D4BB82713408022920013432B607F00A38820005B00A380FFF7BCFF002802D0A3883F2BF4D9E37820005B08E370FFF744
:4026400001FF124BA288C318BB4211D8E37810495343584300F06AFC0400C72800D90024019B2B60002E06D0072000F0A5FB02E03F2AD5D9EAE72000FEBDC04600FF084013
:4026800062F1FF0F08000840FFF8FFF8ECFBFFFFF87F00001FB56B466A4618700A4B69461B5C5370094B1B5C684693700123938002220B72064BCA804B81064B0393FFF78C
:4026C00091FF05B000BDC046BA300000B4300000660200000000FF0F8021054A10B5136809060B431360052000F066FB10BDC0460000064010B5054C2378002B03D100F05F
:402700002DF801232370FFF7E7FF10BDD801002080200A4B40001A6802420AD0084A1268520406D41A680749114019601A6802431A600222044B1A607047C046000006407D
:4027400060000640FFFEFFFF6C00064010B500F08DF810BD10B500F093F810BD802210B50024194B52001A60184A194B19491A60194B1A4A05201360194A1460194A11608A
:40278000194A1360194B1C6000F02CFB0321052000F0F8FA1649052000F0ECFA5222154BFF321C60144B1A60144B1C60144B1C60144B1C60144B1C70144B1C70144B1C800B
:4027C000144B1C7010BDC0460000064000080040600006401000FE0007010080000306400403064010030640000206400402064095280000880E0640480F0640080F06403B
:40280000C80F0640880F06404F0200204E020020500200205202002010B5052000F0E2FA1F21054B05201C781A78E4B28A431A7000F0C2FA200010BD4E02002070B5060025
:402840000D00141E0BD0052000F0CCFA044B05201C60044B1E80044B1D8000F0ADFA70BD58020020540200204C02002010B500F029FA0122014B1A6010BDC046880E064008
:40288000002210B5024BFF201A6000F00DFA10BD880E0640F0B59F4B85B01B68002B00D098479D499D4A0D6813689D4800930223FF3304882B400290019103922DD0202011
:4028C000984A13685B005B081360974B197881431970197810380143197094490D68054206D193480078A04206D01878082501E002251878284318708E488F4B05682B4099
:40290000036000238D4803600B608D490B708021136809060B431360F8E0009AD20601D5884A13600A23009A1A4200D17DE0864B1B685B0744D5854B81491A680B78002BE2
:4029400010D0012B3AD182480188002934D0814ED2B23360804B01391B6801801B191A7001342BE07D480088824225D20124794804607B480088824201D2831A9BB27448F9
:402980000380072B02D801230B7011E069496B48082B06D1A0240B68240223430B60002305E080240B68A40123430B60082303605F4B14001A7001E0FFF7AAFE042232E039
:4029C0005C490B689B0430D50222009B1A4008D0644B1A680F2308681340574A02400A6007E05B480388083B9BB20380082B01D9082301225548584F8446E418E01A002B05
:402A000007D03E68013B301866463668F6B20670F4E7002A06D180200B68000203430B60464B1A600C22504B1A600223009A1A4247D0EA0613D5002240490A603B490A6030
:402A40003B4A1278944200D00833374A2B4011780B4320218B4313700022394B1A706B062DD52021304A13780B431370304B10391C783E4B1B680B4211D08020374B344A25
:402A80001B8840021B1B1380394B1A6802431A601868384A02401A60244B196002E00422264B1A6001221020334B01991A60334B0B6033490B6803430B60264B1A60019B15
:402AC0001D60039B1B685B0720D5FF2100208C460F26214B1E4A1F682A4D1388002B08D039190978013BC9B2296001349BB2012001E0614629602449096831400829EDD125
:402B0000002800D013801022204B1A60029B1C8005B0F0BDDC010020400F0640000E064050020020000006404E020020880F06405202002060000640FF5FFFFFC80F0640DA
:402B40004F020020880E0640CC0F064040030640E00100206C00064058020020540200204C02002008030640C00F06406400064004020640FFFFFEFF800E0640FF0F000014
:402B8000480F06404002064008020640800F06400423044980000A689A43D2B2034013430B6070470003044010B5040000F0B6F9C021044AA40113688B431C43146000F0BA
:402BC000B1F910BD04E400E010B51024044B1C60044B18650320FFF7E7FF034B1C6010BD80E100E00000002000E100E0402210B5024B1A6000F00AF910BDC0466800002012
:402C0000044A1368002BFCDB034B00021843014B186070470000014041000080034A1368002BFCDB024A014B1A6070470000014041000040FF22C90011400202114307238F
:402C4000080030B5024C25682B401843206030BD04030140044A1368002BFCDB034B00021843014B186070470000014040000080034A1368002BFCDB024A014B1A6070478C
:402C80000000014040000040FF22C9001140020211430723080030B5024C25682B401843206030BD00030140044A1368002BFCDB034B00021843014B186070470000014025
:402CC00042000080034A1368002BFCDB024A014B1A6070470000014042000040F8B50400182804D0102302009A43202A35D1072600F014F9194D1A4A2B681A49B3432B602A
:402D0000194B0700E3181B78DBB21360174A1368B3431360164B0A68E31818787F239A43034013430B60322000F0EEF8182C11D923002A681C3B9B08B243334013432B6026
:402D4000322000F0E1F8183C2B68A4083440B3431C432C60380000F0E5F8F8BD080F03400C0F0340180F0340CDF1FF0F100F0340B4F1FF0F024B8000C3181868196070473B
:402D800040000020F8B5032605003540B5400F0004000635AE40AF4000F0C0F8A408054BA400E4182368B3431F43276000F0BAF8F8BDC04600E400E01F2318401E3B8340BE
:402DC000014A13607047C04600E100E01F22044B10401B68C3401800012318407047C04600E100E01F2318401E3B8340014A13607047C04680E100E01F2318401E3B8340F7
:402E0000014A13607047C04680E200E0034A044913689BB20B4313607047C0460CED00E00400FA0570B5802504002D02064BAC4205D9586800F068F8044BE418F6E79868C7
:402E4000604300F061F870BD040100200080FFFF10B500F063F80421034A13688B43136030BF00F05FF810BD10ED00E010B500F055F80421064B074A1B889BB21360064AFC
:402E800013680B43136030BF00F04CF810BDC04652F1FF0F0400034010ED00E00022014B1A60704738000340014A024B1A6070476588EDAC38000340034A80B213681B0C66
:402EC0001B0418431060704740000340014B186880B27047400003400121024A13680B4313607047440003400121024A13688B43136070474C0003400121024A13680B43E7
:402F0000136070474C0003400230800804D0C0460138FDD1C046C046C0467047EFF3108072B6704780F310887047C046002243088B4274D303098B425FD3030A8B4244D3DE
:402F4000030B8B4228D3030C8B420DD3FF22090212BA030C8B4202D31212090265D0030B8B4219D300E0090AC30B8B4201D3CB03C01A5241830B8B4201D38B03C01A524124
:402F8000430B8B4201D34B03C01A5241030B8B4201D30B03C01A5241C30A8B4201D3CB02C01A5241830A8B4201D38B02C01A5241430A8B4201D34B02C01A5241030A8B42EB
:402FC00001D30B02C01A5241CDD2C3098B4201D3CB01C01A524183098B4201D38B01C01A524143098B4201D34B01C01A524103098B4201D30B01C01A5241C3088B4201D3E0
:40300000CB00C01A524183088B4201D38B00C01A524143088B4201D34B00C01A5241411A00D20146524110467047FFE701B5002000F006F802BDC0460029F7D076E7704709
:403040007047C046014B18687047C046780100200E4B70B500251E000D4CE41AA410A54204D0AB00F35898470135F8E700F058F8084B00251E00084CE41AA410A54204D069
:40308000AB00F35898470135F8E770BD2C3100002C3100002C31000034310000002310B59A4203D0CC5CC4540133F9E710BD00000000000001020000018006000206010032
:4030C00000000240000102400002024000030240080004400801044008020440080304400001020340000000010000000400000040000000020000000400000000000440B7
:403100000001044000020440000304400001020305040001020305040101010100014300F8B5C046F8BC08BC9E46704769150000A11B0000F8B5C046F8BC08BC9E46704791
:4031400041150000583100007000002010010000E0000000000000000000000020030000010000000000FF070000FF070000FF070000FF070000FF0F0000FF07010101019B
:403180000101010101010306272727270A2446433E342C0F1F0000000801044008020440080004400800044008010440000000000101010101011E001E001E001E001E00C5
:4031C00028001400140014001400140014000505050505053C003C003C003C003C0046000A000A000A000A0005000500010000000000401F803E0000100000000024F40027
:4032000000000000000000000000000000000000000000000000000000000000000000001E310000000000000000000000000000000000000000000000000000000000003F
:403240000000000000000000000000000000000000000000000000000000000000000000180100200000000000000000000000000000000000000000000000000000000015
:40328000000000000000000000000000000000000000000000000000000000000000000000000000000000000000000000000000000000000000000000000000000000000E
:4032C00000000000000000000000000000000000000000000000000000000000000000000000000000000000000000000000000000000000000000000000000000000000CE
:40330000000000000000000000000000000000000000000000000000000000000000000000000000000000000000000000000000000000000000000000000000000000008D
:40334000000000000000000000000000000000000000000000000000000000000000000000000000000000000000000000000000000000000000000000000000000000004D
:403FC000955114000050000000401E000000000000000000000000000000000000000000000000000000000000000000000000000000000000000000000000000000000019
:0200000490303A
:02000000A194C9
:0200000490402A
:200000000000000000000000000000000000000000000000000000000000000000000000E0
:0200000490501A
:0C00000000020A71119A00000A80B32E61
:0200000490600A
:0100000001FE
:00000001FF