:4000000000080020110000006B0100006B01000010B500F0E7F900F069FA00F0AFF8000010B572B6EE220E4B0E4C1A600E4BEB3A1A600E4B21321A6011231820236000F009
:400040000FF900230A4A0B4913600B4A116004210A4A11600A4A3C311160236010BDC046000302403000104000030440080304400003014040FF00800000014028000340F8
:4000800000010140000000000000000000000000000000000000000000000000000000000000000000000000000000000000000000000000000000000000000000000000FE
:4000C0000000000000000000000000000000000000000000000000000000000000000000000000000000000000000000000000000000000000000000000000000000000000
:4001000010B5064C2378002B07D1054B002B02D0044800E000BF0123237010BDF80000200000000068130000084B10B5002B03D00749084800E000BF07480368002B00D1B0
:4001400010BD064B002BFBD09847F9E700000000FC00002068130000700000200000000010B562B600F0DEFBFEE710B501F0BAF803680C2B00D1FEE7FEE70000F8B5002583
:400180000F49104B01394A1C14D000221F685C689E68A018B24203D0B858A0500432F8E70200DE68141AA64201D020C2FAE710330139E8E701F09CF8FFF7D2FFFEE7C0468C
:4001C000010000009C13000001210F4A70B5136814008B43136000230C4D0D4E0D489A002900032B00D8B15801338150192BF6D1FFF716FF084B1A68002A00D11A60012259
:4002000023681343236070BD000010406B0100000000000000000020680000208021034A090613680B4313607047C04630000340024A13685B005B0813607047300003403E
:4002400010B5040000F0AAFB032304490A689A43234013430B6000F0A5FB10BD28000340F8B50400182804D0102302009A43202A35D1072600F092FB194D1A4A2B681A49E1
:40028000B3432B60194B0700E3181B78DBB21360174A1368B3431360164B0A68E31818787F239A43034013430B60322000F06CFB182C11D923002A681C3B9B08B2433340B0
:4002C00013432B60322000F05FFB183C2B68A4083440B3431C432C60380000F063FBF8BD080F03400C0F0340180F0340CDF1FF0F100F0340B4F1FF0F10B5040000F04EFB59
:40030000A3000C24044923400A68A24313430B6000F048FB10BDC04628000340024B8000C31818681960704740000020F8B5032605003540B5400F0004000635AE40AF4089
:4003400000F02CFBA408054BA400E4182368B3431F43276000F026FBF8BDC04600E400E01F2318401E3B8340014A13607047C04600E100E01F2318401E3B8340014A13606A
:400380007047C04680E100E01F2318401E3B8340014A13607047C04680E200E001BE7047034A044913689BB20B4313607047C0460CED00E00400FA0570B5802504002D029D
:4003C000064BAC4205D9586800F0DEFA044BE418F6E79868604300F0D7FA70BD740000200080FFFF014A024B1A6070476588EDAC38000340004700234118002A05D0013AC6
:40040000881800781B18DBB2F7E7180070473F23020070B59A4390B0130014006A464034D51A1E78EE540133A342FAD13F230340D45C8C4205D08009D15480B2110000F042
:4004400079FB10B070BD0000013810B50B2831D88901494200F032FF06090B0D0F111513171A1C21FF239B0113E0154B16E0154B0AE0154B12E0154B0BE0154B09E0154B37
:4004800002E0154B00E0154BC91814E0144B05E0144BC9180878C0B211E0134BC9180A7848788C780002230418430300C8781343000603E000210B7848780002184310BD65
:4004C000C13F0000C53F0000C93F0000D03F0000D13F0000D63F0000D23F0000D43F0000D83F0000DC3F0000E03F00000C4B10B51A68102313400B4A00D113601368802B64
:400500000DD10024022021001460FFF79DFFA04205D021000220FFF797FFFFF76BFF10BD5400034068000020F8B5010004000320FFF78AFF210006000420FFF785FF210064
:4005400007000620FFF780FF0025012828D021000320FFF779FF0136B601F7192E0001308001B84209D203785A1ED2B2FD2A00D80126ED18EDB20130F3E721000120FFF7AA
:4005800063FF6D42EBB20625834209D1002E07D0AC40044B6042C0180121FFF738FF00252800F8BDD13F0000F0B5C34CA54400F023FA62B6002701970297962105AD18AC61
:4005C000FF232A004900200000F032FA0028F4D12988062900D885E022780423012A4FD16688F21D8A427FD8962149008A427BD8A2199279172A43D1F3189BB2002B08D05F
:40060000AEAAAE49D21852181278013B801880B2F3E7A3195A7940421B79120280B21A43082382422CD161E0342B00D0C6E0019B012B57D1032E55D14022002163A800F09E
:4006400086FE4027572163ABD819F21E04ABF619C918B6B200F072FE432E00D0FFE05522562104AB9B1804AA521810781B78000218430700FF2800D8F7E0012301930933D0
:40068000002418A801214370230AC370002304AA06320170211D1480847089B2002909D0AEAD864E6D18AD192D7801395B199BB289B2F3E7AEA9824D09195B424D199BB2DD
:4006C0002B70804D1B0A4D192B707F4B0734C91817230B70A1B27F3300F0DEF96DE7019B012B45D00423CBE70323C9E763782579180031380A282ED9744A1468002C26D096
:40070000019A012A25D108AD04AA13725681002119AE0C222800079600F019FEAE60290006A8A0472623AC88FF339C4202D9AB68B34207D0AA68002A01D1002C04D12B68A7
:40074000DBB29EE70E239BE70E23140099E7052397E7052394E700F0BBFDC2FF1600CFFF67FF3700CFFF3C004E0067FF5F007500002EB7D13000FFF7D7FE434243412371DC
:400780003300019C7DE7019B012BABD1012EA9D1002DA7D14E4B1B681B689A0BD2B29B09DBB2002A01D080235B0023711B0A6371FF23A3710023E371042462E7019B012B0E
:4007C00090D1022E8ED93DE7019B012B8AD10027F3E6019B012B85D12C33F419FF339C4282DC63ABD819320019A900F0A7FD0023A7B21C0045E7002E00D073E708AB190053
:40080000344A370011CA11C119AA03CB03C2012308240193330034E7019B012B00D061E7032E00D05EE75522562104AB9B1804AA521812781B7812021A430392FF2A52D9C9
:400840000A231DE70020FFF76FFE002802D18022214B1A6000F0E8F8FFF7A2FD42E701230027019302333C000BE7194B1B681A6893099BB2920601D001339BB22D02781975
:4008800085B29D4213D3029B002B0AD11900402208A800F05CFD08A9FF2000F04BF90123029363A9280000F045F9002816D00123002701930933D6E744FDFFFFA7FDFFFF3F
:4008C000ACFDFFFFADFDFFFFAEFDFFFF14010020880000206C130000680000200123070001930300BFE7039B2902C918890140220020FFF780FD0600002D0ED1039BFF2BB1
:400900000BD129000520FFF79FFD2900361A0620FFF79AFDF6B2361AF6B27642267100230124AEE670B50020FFF7FEFD431E98410624134D40422B6804401A68C021C03A54
:400940000020FFF758FD6B681B78181AC0B2834203D12B681B68002B02D10020FFF71EFD084B19681A00402901D0002C03D000231360FFF719FE80221A60FFF711FD70BD0D
:4009800088000020680000200230800804D0C0460138FDD1C046C046C0467047EFF3108072B6704780F310887047C0460D4B1B685B0615D50C4B1B68DB0609D50B4B1A68F3
:4009C000002A0DD00A490A6000220A490A6006E0084B074A18681168884201D012681A607047C0464C0F06406400064018010020CC010020B001002010B5094C4021201D8B
:400A000000F07EF820000021443000F05BF8054800F0E4F90023236000F0BCF910BDC04618010020AD09000010B500F0C1F910BDF7B506000D0001920120002E24D0002937
:400A400022D00A2410275C43002C1CD00F4803783B4213D00E4A019913689BB20B800021017011602A1C9D4200D91A1C094992B20431300000F062FC002005E00120FFF755
:400A80009BFC013CE0E71020FEBDC046B5010020C40100201801002070B501230C0000280CD000290AD0064D11802B0044330A000100180000F042FC00232C60180070BD8F
:400AC0001801002070B504000D0000280ED00520FFF750FC064B074A1C60074B05201D6000231360054A1360FFF73AFC70BDC046BC010020B0010020CC010020C0010020D5
:400B000070B504000D0000280CD00520FFF732FC0022054B05201C60044B1D60044B1A60FFF71EFC70BDC046C8010020B8010020C4010020F0B500279DB0089703900997B5
:400B4000FF2800D9F2E0B94200D1EFE040220CA800F0F4FB0222390001970AAB9000C058002802D00918074301920132122AF5D1002903D1002F00D0DBE000E0002702973D
:400B80003F227149714C0A9171485A60714A23600260C046236806911B0F049007920F2B04D022680023120F0A2A01D02368DBB20893089D002D00D0C2E0FFF7EFFE664EC1
:400BC00066493268664B0A601B680590DB0FDB074B60644B1B6809959B00099818338B600D0000281ED1302B06D12D3B1A4203D112091A40012A13D00220FFF77DFBAB68AC
:400C0000302B02D03020FFF72BFBFFF707FB0020FFF716FB302233689343203A1343336000230893089B002B18D14F4A03990A920A9A09040A430AA90A92049821604B49B2
:400C4000424A0160C0462168090F0F2903D01168090F0A2901D01368DBB20893089D002D3BD1002F39D0290040220CA800F06FFB019B029A0AAF9B00DA51069B049A0A935B
:400C80003F2307997B602760304B1160C0462268120F0F2A03D01A68120F0A2A01D01D68EDB20895089B002B17D1314A03990A920A9A09040A4304982E490A922760234AB4
:400CC0000160C0462168090F0F2903D01168090F0A2901D01368DBB20893099B002B21D11E4CA068302808D1226803331A4206D112091340012B02D10DE0FFF7B1FA032034
:400D000023681840FFF79CFA236833606368002B01D1FFF78DFA00230993099B002B01D0099B08930598FFF73DFE09E00423089306E0019A012792009858995002901FE71E
:400D400008981DB0F0BDC046B6D70000080010400400104004000080280003409C01002030000340080F0340B6D8000005000080B6D90000060000808021054A10B5136849
:400D800009060B4313600520FFF7EAFA10BDC0460000064010B5054C2378002B03D100F041F801232370FFF7E7FF10BDA801002010B50520FFF7DEFA00F096F8054A05209F
:400DC00013685B005B0813600022034B1A60FFF7DBFA10BD00000640880F0640014B58607047C046A801002080200A4B40001A6802420AD0084A1268520406D41A68074975
:400E0000114019601A6802431A600222044B1A607047C0460000064060000640FFFEFFFF6C00064010B500241A4B1B4A1C601B4B1B491A601B4B1C4A052013601B4A1460B4
:400E40001B4A11601B4A13601B4B1C60FFF792FA03210520FFF76AFA18490520FFF75EFA4C22174BFF321C60164B1A60164B3C3A1C60164BFF3A1C60154B1C60154B1A7062
:400E8000154B1C70154B1C60154B1C60154B1C7010BDC0460000064097080040600006403000FE00070100800003064004030640100306400002064004020640650F000057
:400EC000880E0640480F0640080F0640C80F0640880F0640D0010020B5010020B0010020C4010020B40100200023044A1360044A13601022034B1A707047C04668000640B6
:400F00006C000640D00100200E4A10B513680E495B005B08136000230B600C490C480B6004680C49214001600B490B600B490B6010210B4B19708021136809060B4313604F
:400F400010BDC04600000640680006406C00064060000640FF5CFFFF880F0640C80F0640D0010020B24BF7B51B68002B00D09847B04B1B68DB0702D50022AF4B1A602020FB
:400F8000AE4B1A78024219D1AD4A11680222FF32114213D01978AB4AC90706D511781E38814311701178073004E0117881431170902110780143117000221A701A789206E2
:400FC00000D533E11A78D20600D42DE102229C480168114234D09C499C4D0A609C490D320C68096822409B4C0904C90F26788A189449B24204D204260A7832430A7004E01F
:4010000027782E68D21BB21A2A602D68924A15600022924D2A6080252270914C6D0222682A43226025688F4A2A40226002240A78A2430A700A78013C22430A7010221A7018
:4010400008220168114235D07F490A60864A1168890417D58549864F0F25864C24682C420CD06E460C683D682C19834D2D68F571F57925700C6801340C60EDE714687F4905
:40108000214011607E4A6F4915681400AA0603D540250A782A430A7000257A4A15607A4A226020240A78A2430A700A78103C22430A701C70026852063ED50121734A1160D0
:4010C000734A60491068102210420BD063480260614A10685D4A106002200A7802430A7012221DE06B4A614812680068121A0420072A0ED95C48082A05D1A0240268240230
:401100002243026007E080240268A4012243026008205C4A106020200A7802430A70112208211A705C4A484B1A605C4A13680B43136001225A4B1A6008215A4B1A680A426F
:4011400025D0544B494A1B681068083B1B1A01208B4201D900200B00454C474D002B0AD011682668013B71182E68F6B20E70116801311160F2E7002807D080203A49000217
:401180000A6802430A603F4A136008221FE01B685B071ED5384B35491A683E4B08681B6898420CD201203E4BD2B2186030480B680068C3181A700B6801330B6006E0FFF70E
:4011C00013FE40211F4A13780B43137004222C4B1A60354B1B68DB0628D50F21FF25334B1B481C68194A03680B40082B18D0304B17681B682F4E9F4208D21368E3181B7815
:40120000DBB23360136801331360ECE73560114E33780A2BE7D833780133DBB23370E2E71022254B1A6001E0FFF76EFEF7BDC046AC0100208C0E0640880E0640D00100209B
:401240004C0F0640B5010020400F0640C001002008020640B4010020B0010020880F064004020640FFFFFEFF60000640C4010020C80100200803064040030640FF5FFFFFBD
:40128000C00F0640C80F0640ED0F0000800E064064000640B8010020FF0F0000480F06406C000640CC0F06408C0F0640BC010020CC01002040020640800F064002B47146B6
:4012C00049084900095C49008E4402BC7047C04603B47146490840004900095E49008E4403BC7047014B18687047C046F00000200E4B70B500251E000D4CE41AA410A542CD
:4013000004D0AB00F35898470135F8E700F034F8084B00251E00084CE41AA410A54204D0AB00F35898470135F8E770BD8413000084130000841300008C130000002310B519
:401340009A4203D0CC5CC4540133F9E710BD03008218934202D019700133FAE7704700004014000028000000000000009A11710A003C010143000000F8B5C046F8BC08BCB6
:401380009E46704729010000C9010000F8B5C046F8BC08BC9E46704701010000B01300007000002088000000E000000000000000000000000100000000007017E02E000085
:4013C0000C000000001BB70060130000641300000000000000000000000000000000000000000000000000000000000000000000741300000000000000000000000000009E
:4014000000000000000000000000000000000000000000000000000000000000000000000000000000000000000000000000000090000020000000000000000000000000FC
:401440000008002051140000A1170000A117000010B5034B83F3088801F0B0F900F0A8F90008002070B572B6EE221E4B42251A60542301241C4A1D4E13601D4A182013606A
:4014800007221C4B1D601C4B1D601C4B1C601C4B1C601C4B1A601C4B9D321A601123336001F0E8F8FE22194B12021A601849194B2000196018490A60184A19491A600022B1
:4014C0000A60184919600421174B1960174B3C311960174B09191960164B1D60326000F043F970BD000302400000044030001040180004400001044018010440000204404D
:401500001802044000030440080304400003014040FF0080000001400403014041FF00800803014042FF008028000340080101400401014000010140000000000000000021
:4015400010B5064C2378002B07D1054B002B02D0044800E000BF0123237010BD50010020000000008C290000084B10B5002B03D00749084800E000BF07480368002B00D1C9
:4015800010BD064B002BFBD09847F9E700000000540100208C2900007000002000000000F8B562B600F0E6FA00F070FB00F0E6FDC821694E0800320000F068FE0023180070
:4015C000664A9918013308701400C82BF9D100F005FB00F099F9051EFBD100F0D1FB280000F09EFD6071012000F09AFDA071022000F096FDE071032000F092FD2072042065
:4016000000F08EFD6072012001F0E0F801F0EAF82300052738331870F378AC2B04D13379392B01D100F0C8FF00F0D8FA00F06CF9051EFBD100F0A4FB280000F0B3FBA07241
:40164000012000F0AFFBE072022000F0ABFB2073032000F0A7FB6073042000F0A3FB404BA0731A880520110AE17322745A88110A6174A2749A88110AE1742275DA88110AE0
:401680006175A2751B8923761A0A364BE2751A88110A6176A2765A88110AE17622779A88110A6177A277DA88110AE177611CCA771B89A21C190AD177E21CD3770A22231D29
:4016C000DD77631DDD77A31DDD77E31DDA7723000833DD77230028331D70230029331D70230001322A331A7023002B331D7023002C331D7023002D331D70230001322E3373
:401700001A7023002F331D70230030331D70230031331D702300013232331A70230033331D70230034331D70230035331D702300013236331A7001F00BF801233570737073
:40174000B77062195279731901355A71C82DF8D1052001F013F85FE7A8010020840200206E0100208A0100200B4A10B51368002803D0802109060B4301E05B005B08136001
:40178000064B202419680A00A243002801D022000A431A6010BDC046002002402800034010B501F0C7F803680C2B00D1FEE7FEE7F8B500250F49104B01394A1C14D00022C5
:4017C0001F685C689E68A018B24203D0B858A0500432F8E70200DE68141AA64201D020C2FAE710330139E8E701F0AAF8FFF7D8FEFEE7C04601000000102A000001210F4AC6
:4018000070B5136814008B43136000230C4D0D4E0D489A002900032B00D8B15801338150192BF6D1FFF71EFE084B1A68002A00D11A60012223681343236070BD0000104045
:40184000A11700004014000000000020680000200F2010B51249134B0A68134C1A70237803401A002378834313430B600F4A104B08381A600F4A104B1A60104A104B1168C8
:401880000B40C021C9020B43136000F077FF0D49072000F03BFF0321072000F03FFF10BD00FF08404C03002062F1FF0F00020001080008400008A00104000840000002407C
:4018C000FFFFF0FF4D1E000010B500F08DFE00F0B5FE0021080000F0BDFE0021080000F08FFEFF2000F09CFE402000F06FFE044A0449136807200B43136000F029FF10BDEA
:401900000400084000100880024B1878012318407047C0466C01002070B5104E355C731D1C5C00F073FFAB00F3180F26A100C9B28E40DD682A68B243160004228A40D969B9
:40194000032363430724DBB29C4032430E68A6430E602A6000F05EFF70BDC04690290000184BF7B55A1D175C1C5CB900C9B28C46154AA400105C1A19D6680F2132680325B9
:401980000192624691407D43019AEDB28A43326001930026012800D0063600F037FF0721A940AE40019B1C19E26913688B431E43166000F02FFF0122BA40E16A0B689343A3
:4019C0000B60F7BD902900004E03002010B5002420000134FFF7C4FF052CF9D110BD0000F7B505002F4B304E3C331B5C9B009B59019300F0F9FD00F021FE7319187D0021F6
:401A0000013880B200F026FE33001933585D0021013880B200F0F4FDFF2000F001FE402000F0D4FD072000F0A9FE80221F4B52021A601C68240C2404FBD101221C4B072066
:401A40001A6000F0A5FE072000F082FE072000F095FE1848184B0268184F134032001E32515D23360B431A00735D1B04134303603E68134B07201E40124B1E4300F068FEFB
:401A80002800FFF749FF00F0C1FE05003E60200000F0B2FE054B019A28001A6000F0BAFEF7BDC04690290000740000200C000840140008400800084000FF80FF04000840A8
:401AC000FF1FDFFF200020000022054B10B51A70C2B21A7381221A70FFF782FF10BDC0466C0100200E4B10B519680E4B42000233D152FFF735FF072000F040FE0A4A0B4B29
:401B0000116807200B40A02109020B431360084A084B11680B40136000F01AFE10BDC0460C0008406C01002004000840FF1FDFFF0800084000FF80FFC0220449D2000B680B
:401B400040021040184308607047C0460400084010B50024064B1C705C709C70DC701C71FFF776FE2000FFF7E7FFFFF72FFF10BD4E03002010B5084C637B002B03D1FFF7DC
:401B8000E7FF01236373FFF79FFE8021034AC90313680B43136010BD6C01002004000840072310B504000120CA0819408840A35C1840431E984110BD70B50400064D2835D8
:401BC0000134E4B2052C05D021002800FFF7E8FF0028F5D0200070BD74000020002310B50A4C2370FF332373207BC0B2FFF7E4FF2073237B042B07D80122237813432370BB
:401C0000207BC0B2FFF7ECFE10BDC0466C01002010B50724CB080C400121A140C018C9B20378002A02D01943017001E08B43037010BD00000A4B70B51C5C0A4B4200D15A0B
:401C4000094B00251E000A363554981805820748D152005D1A331855054BD15270BDC046CC2900006E0100207A010020B40000205A03002010B50400FFF726FFFFF744FE12
:401C80000028FBD12000FFF7D5FF10BD10B5002420000134FFF7EEFF052CF9D110BD0000314BF7B51E5C314972008B1DD35A040042009C46087C2E4BD35A002807D02D4867
:401CC000175ADD197B005B199B089BB213522A48805A834206D30025284A15551A1A92B2013516E00D0077001235C21A7D5B92B295420DD2214D09192B5D0A7F9A4204D8D8
:401D00002000FFF797FF002300E001332B5524E0002594450ED212317600715A914202D8002D1AD001E0002D04D0134B64001C19228217E0104F3E000A36315D0196060298
:401D40000E43301A1B186100180AC85301990B5500210A4B19559445E2D3074B64001C1900232382F7BDC046CC290000B40000206E0100205A0300207A0100205403002037
:401D800010B5002421000648FFF70AFF002802D02000FFF785FF0134052CF3D110BDC0469C000020264AF0B51100264C264B27001E5C22317300595AD3189B8D85B002937F
:401DC0002037935D05000191010038000393FFF7E7FE6B00E318002810D01A8A0299019B5B1A9A4222DA002229003800FFF710FF6A462300127B1A339A5517E0029A198A6B
:401E000094462200019B1A32634499420BDB935D013BDBB29355002B08D1012229003800FFF7F6FE02E06B461B7B9355200029002030FFF7B5FE431E984105B0F0BDC0464E
:401E4000B40000207A010020CC29000070B50126072000F093FC164B164D1E602878C0B2FFF740FE144C23785BB2002B03DA2378B343237018E02878C0B2FFF79DFE28701D
:401E80002B78042B04D82878C0B2FFF7A9FD0BE02378B343237023785B0605D5074B1A78074B1E70074B1A70072000F051FC70BD14000840780100206C0100204D030020BE
:401EC0009B0100209C0000200F2230B58500AA40094B8900CC58236893431A000423AB401343064A8D5803214843043181402A688A432A60236030BD9C290000AC29000034
:401F00000F2270B58600B2400D4B8900CD5803242B68444393430722A2402B60094BCD582B6893431A000623A3401343012282402B60054BC9580B6893430B6070BDC046FA
:401F40009C290000AC290000BC290000F7B5040080880021013880B200F052FBE0880021013880B200F076FB284A294B116800260B40C021C9020B431360FF22254F264DC7
:401F80003B6861789343A27820781A432B6800920193FFF799FF214B31009C46237A994222D21F4B2B60FD235B003B600B3BFF3B624608201268024203D1002B01D0013B69
:401FC000F6E7009A3A60174A2A60E068164A10601068000CFCD1002B03D0134B1B68F61800E01E000131D9E761782078FFF788FF0122019B07202B600C4B1A6000F0C8FBBC
:402000003000217A00F00AFC80B2FEBD00000240FFFFF0FF0800084004000840100008400030C8810038E8810C00084014000840002370B50400082680258370A3782000B8
:402040002B43A370FFF782FF6389984202D2A378AB43A370013E6D08002EEFD1034BC018B82383428041404270BDC046F6FDFFFF0F23F7B52449040024480A6800789A4361
:40208000034013430B60072000F06CFB204D0600072000F073FB2B682A6801931D4BB82713408022920013432B607F00A38820005B00A380FFF7BCFF002802D0A3883F2BB6
:4020C000F4D9A37820005B08A370FFF73FFF124BA288C318BB4211D8A37810495343584300F09CFB0400C72800D90024019B2B60002E06D0072000F02BFB02E03F2AD5D969
:40210000EAE72000FEBDC04600FF084062F1FF0F08000840FFF8FFF8ECFBFFFFFA5F00001FB56A460A4B69461B5C1370094B1B5C684653700123938002220B72064BCA8098
:402140004B81064B0393FFF793FF05B000BDC0469529000090290000660200000000FF0F8021054A10B5136809060B431360052000F0EEFA10BDC0460000064010B5054C93
:402180002378002B03D100F025F801232370FFF7E7FF10BD9C01002080200A4B40001A6802420AD0084A1268520406D41A680749114019601A6802431A600222044B1A60C0
:4021C0007047C0460000064060000640FFFEFFFF6C00064010B50024184B194A1C60194B19491A60194B1A4A05201360194A1460194A1160194A1360194B1C6000F0BEFAB5
:402200000321052000F08AFA1649052000F07EFA5222154BFF321C60144B1A60144B1C60144B1C60144B1C60144B1C70144B1C70144B1C80144B1C7010BDC0460000064035
:4022400000080040600006401000FE00070100800003064004030640100306400002064004020640BD220000880E0640480F0640080F0640C80F0640880F0640680300201D
:402280006C030020660300206403002070B506000D00141E0BD0052000F070FA044B05201C60044B1E80044B1D8000F051FA70BD70030020740300206A030020F0B59F4B44
:4022C00085B01B68002B00D098479D499D4A0D6813689D4800930223FF3304882B400290019103922DD02020984A13685B005B081360974B19788143197019781038014368
:40230000197094490D68054206D193480078A04206D01878082501E002251878284318708E488F4B05682B40036000238D4803600B608D490B708021136809060B43136063
:40234000F8E0009AD20601D5884A13600A23009A1A4200D17DE0864B1B685B0744D5854B81491A680B78002B10D0012B3AD182480188002934D0814ED2B23360804B01398C
:402380001B6801801B191A7001342BE07D480088824225D20124794804607B480088824201D2831A9BB274480380072B02D801230B7011E069496B48082B06D1A0240B687C
:4023C000240223430B60002305E080240B68A40123430B60082303605F4B14001A7001E0FFF7DAFE042232E05C490B689B0430D50222009B1A4008D0644B1A680F23086814
:402400001340574A02400A6007E05B480388083B9BB20380082B01D9082301225548584F8446E418E01A002B07D03E68013B301866463668F6B20670F4E7002A06D1802065
:402440000B68000203430B60464B1A600C22504B1A600223009A1A4247D0EA0613D5002240490A603B490A603B4A1278944200D00833374A2B4011780B4320218B43137096
:402480000022394B1A706B062DD52021304A13780B431370304B10391C783E4B1B680B4211D08020374B344A1B8840021B1B1380394B1A6802431A601868384A02401A60FF
:4024C000244B196002E00422264B1A6001221020334B01991A60334B0B6033490B6803430B60264B1A60019B1D60039B1B685B0720D5FF2100208C460F26214B1E4A1F6875
:402500002A4D1388002B08D039190978013BC9B2296001349BB2012001E0614629602449096831400829EDD1002800D013801022204B1A60029B1C8005B0F0BDA001002083
:40254000400F0640000E064066030020000006406C030020880F06406403002060000640FF5FFFFFC80F064068030020880E0640CC0F064040030640A40100206C00064009
:4025800070030020740300206A03002008030640C00F06406400064004020640FFFFFEFF800E0640FF0F0000480F06404002064008020640800F0640402210B5024B1A60F3
:4025C00000F0F0F810BDC04668000020044A1368002BFCDB034B00021843014B186070470000014041000080034A1368002BFCDB024A014B1A607047000001404100004060
:40260000FF22C9001140020211430723080030B5024C25682B401843206030BD04030140044A1368002BFCDB034B00021843014B186070470000014040000080034A1368E0
:40264000002BFCDB024A014B1A6070470000014040000040FF22C9001140020211430723080030B5024C25682B401843206030BD00030140F8B50400182804D010230200D8
:402680009A43202A35D1072600F0C0F8194D1A4A2B681A49B3432B60194B0700E3181B78DBB21360174A1368B3431360164B0A68E31818787F239A43034013430B60322066
:4026C00000F09AF8182C11D923002A681C3B9B08B243334013432B60322000F08DF8183C2B68A4083440B3431C432C60380000F091F8F8BD080F03400C0F0340180F0340FB
:40270000CDF1FF0F100F0340B4F1FF0F024B8000C31818681960704740000020F8B5032605003540B5400F0004000635AE40AF4000F06CF8A408054BA400E4182368B3431F
:402740001F43276000F066F8F8BDC04600E400E01F2318401E3B8340014A13607047C04600E100E01F22044B10401B68C3401800012318407047C04600E100E01F2318409F
:402780001E3B8340014A13607047C04680E100E01F2318401E3B8340014A13607047C04680E200E0034A044913689BB20B4313607047C0460CED00E00400FA05014A024B7A
:4027C0001A6070476588EDAC380003400423044980000A689A43D2B2034013430B60704700030440024B18684007C00F7047C04604030440000000000230800804D0C0465F
:402800000138FDD1C046C046C0467047EFF3108072B6704780F310887047C046002243088B4274D303098B425FD3030A8B4244D3030B8B4228D3030C8B420DD3FF22090274
:4028400012BA030C8B4202D31212090265D0030B8B4219D300E0090AC30B8B4201D3CB03C01A5241830B8B4201D38B03C01A5241430B8B4201D34B03C01A5241030B8B4264
:4028800001D30B03C01A5241C30A8B4201D3CB02C01A5241830A8B4201D38B02C01A5241430A8B4201D34B02C01A5241030A8B4201D30B02C01A5241CDD2C3098B4201D31D
:4028C000CB01C01A524183098B4201D38B01C01A524143098B4201D34B01C01A524103098B4201D30B01C01A5241C3088B4201D3CB00C01A524183088B4201D38B00C01A78
:40290000524143088B4201D34B00C01A5241411A00D20146524110467047FFE701B5002000F006F802BDC0460029F7D076E770477047C046014B18687047C0464C01002026
:402940000E4B70B500251E000D4CE41AA410A54204D0AB00F35898470135F8E700F046F8084B00251E00084CE41AA410A54204D0AB00F35898470135F8E770BDF829000029
:40298000F8290000F8290000002A00000000000001010200000106000206000000000240000102400002024000030240080004400801044008020440080304400000044010
:4029C0000001044000020440000304400001020304000000020000004000000001000000040000004000000043000000F8B5C046F8BC08BC9E46704769150000FD170000D9
:402A0000F8B5C046F8BC08BC9E46704741150000202A000070000020E000000028020000000000000000FF070000FF070000FF070000FF070000FF07020202020203030365
:402A40000303381C1C1C1C371C1C1C1C1F00000008010440080104400802044008000440080004400505050505001400140014001400140001001400140014001400140080
:402A8000050505050500640064006400640064000A000A000A000A000A0000000000000000000000000000000000000000000000000000000000000000000000E8290000C6
:402AC000000000000000000000000000000000000000000000000000000000000000000000000000000000000000000000000000000000000000000000000000EC000020CA
:402B00000000000000000000000000000000000000000000000000000000000000000000000000000000000000000000000000000000000000000000000000000000000095
:402B40000000000000000000000000000000000000000000000000000000000000000000000000000000000000000000000000000000000000000000000000000000000055
:402B80000000000000000000000000000000000000000000000000000000000000000000000000000000000000000000000000000000000000000000000000000000000015
:402BC00000000000000000000000000000000000000000000000000000000000000000000000000000000000000000000000000000000000000000000000000000000000D5
:403FC000225114000050000000C016000000000000000000000000000000000000000000000000000000000000000000000000000000000000000000000000000000000014
:0200000490303A
:02000000EA0C08
:0200000490402A
:200000000000000000000000000000000000000000000000000000000000000000000000E0
:0200000490501A
:0C00000000020A71119A00000A7DFBA6A4
:0200000490600A
:0100000001FE
:00000001FF